{
  "contractName": "Voting",
  "abi": [
    {
      "inputs": [],
      "stateMutability": "nonpayable",
      "type": "constructor"
    },
    {
      "anonymous": false,
      "inputs": [
        {
          "indexed": true,
          "internalType": "uint256",
          "name": "electionId",
          "type": "uint256"
        },
        {
          "indexed": true,
          "internalType": "uint256",
          "name": "candidateId",
          "type": "uint256"
        },
        {
          "indexed": false,
          "internalType": "string",
          "name": "name",
          "type": "string"
        },
        {
          "indexed": false,
          "internalType": "string",
          "name": "party",
          "type": "string"
        }
      ],
      "name": "CandidateAdded",
      "type": "event"
    },
    {
      "anonymous": false,
      "inputs": [
        {
          "indexed": true,
          "internalType": "uint256",
          "name": "electionId",
          "type": "uint256"
        },
        {
          "indexed": false,
          "internalType": "string",
          "name": "name",
          "type": "string"
        },
        {
          "indexed": false,
          "internalType": "uint256",
          "name": "startTime",
          "type": "uint256"
        },
        {
          "indexed": false,
          "internalType": "uint256",
          "name": "endTime",
          "type": "uint256"
        }
      ],
      "name": "ElectionCreated",
      "type": "event"
    },
    {
      "anonymous": false,
      "inputs": [
        {
          "indexed": true,
          "internalType": "uint256",
          "name": "electionId",
          "type": "uint256"
        },
        {
          "indexed": true,
          "internalType": "address",
          "name": "voter",
          "type": "address"
        },
        {
          "indexed": true,
          "internalType": "uint256",
          "name": "candidateId",
          "type": "uint256"
        }
      ],
      "name": "VoteCast",
      "type": "event"
    },
    {
      "anonymous": false,
      "inputs": [
        {
          "indexed": true,
          "internalType": "uint256",
          "name": "electionId",
          "type": "uint256"
        },
        {
          "indexed": true,
          "internalType": "address",
          "name": "voter",
          "type": "address"
        }
      ],
      "name": "VoterRegistered",
      "type": "event"
    },
    {
      "inputs": [],
      "name": "electionCount",
      "outputs": [
        {
          "internalType": "uint256",
          "name": "",
          "type": "uint256"
        }
      ],
      "stateMutability": "view",
      "type": "function",
      "constant": true
    },
    {
      "inputs": [
        {
          "internalType": "uint256",
          "name": "",
          "type": "uint256"
        }
      ],
      "name": "elections",
      "outputs": [
        {
          "internalType": "uint256",
          "name": "id",
          "type": "uint256"
        },
        {
          "internalType": "string",
          "name": "name",
          "type": "string"
        },
        {
          "internalType": "string",
          "name": "description",
          "type": "string"
        },
        {
          "internalType": "uint256",
          "name": "startTime",
          "type": "uint256"
        },
        {
          "internalType": "uint256",
          "name": "endTime",
          "type": "uint256"
        },
        {
          "internalType": "uint256",
          "name": "totalVotes",
          "type": "uint256"
        },
        {
          "internalType": "bool",
          "name": "isActive",
          "type": "bool"
        }
      ],
      "stateMutability": "view",
      "type": "function",
      "constant": true
    },
    {
      "inputs": [],
      "name": "owner",
      "outputs": [
        {
          "internalType": "address",
          "name": "",
          "type": "address"
        }
      ],
      "stateMutability": "view",
      "type": "function",
      "constant": true
    },
    {
      "inputs": [
        {
          "internalType": "string",
          "name": "_name",
          "type": "string"
        },
        {
          "internalType": "string",
          "name": "_description",
          "type": "string"
        },
        {
          "internalType": "uint256",
          "name": "_startTime",
          "type": "uint256"
        },
        {
          "internalType": "uint256",
          "name": "_endTime",
          "type": "uint256"
        }
      ],
      "name": "createElection",
      "outputs": [
        {
          "internalType": "uint256",
          "name": "",
          "type": "uint256"
        }
      ],
      "stateMutability": "nonpayable",
      "type": "function"
    },
    {
      "inputs": [
        {
          "internalType": "uint256",
          "name": "_electionId",
          "type": "uint256"
        },
        {
          "internalType": "uint256",
          "name": "_candidateId",
          "type": "uint256"
        },
        {
          "internalType": "string",
          "name": "_name",
          "type": "string"
        },
        {
          "internalType": "string",
          "name": "_party",
          "type": "string"
        }
      ],
      "name": "addCandidate",
      "outputs": [],
      "stateMutability": "nonpayable",
      "type": "function"
    },
    {
      "inputs": [
        {
          "internalType": "uint256",
          "name": "_electionId",
          "type": "uint256"
        },
        {
          "internalType": "address",
          "name": "_voterAddress",
          "type": "address"
        }
      ],
      "name": "registerVoter",
      "outputs": [],
      "stateMutability": "nonpayable",
      "type": "function"
    },
    {
      "inputs": [
        {
          "internalType": "uint256",
          "name": "_electionId",
          "type": "uint256"
        },
        {
          "internalType": "uint256",
          "name": "_candidateId",
          "type": "uint256"
        }
      ],
      "name": "vote",
      "outputs": [],
      "stateMutability": "nonpayable",
      "type": "function"
    },
    {
      "inputs": [
        {
          "internalType": "uint256",
          "name": "_electionId",
          "type": "uint256"
        }
      ],
      "name": "getResults",
      "outputs": [
        {
          "internalType": "uint256[]",
          "name": "",
          "type": "uint256[]"
        },
        {
          "internalType": "uint256[]",
          "name": "",
          "type": "uint256[]"
        }
      ],
      "stateMutability": "view",
      "type": "function",
      "constant": true
    },
    {
      "inputs": [
        {
          "internalType": "uint256",
          "name": "_electionId",
          "type": "uint256"
        }
      ],
      "name": "getWinner",
      "outputs": [
        {
          "internalType": "uint256",
          "name": "",
          "type": "uint256"
        },
        {
          "internalType": "string",
          "name": "",
          "type": "string"
        },
        {
          "internalType": "string",
          "name": "",
          "type": "string"
        },
        {
          "internalType": "uint256",
          "name": "",
          "type": "uint256"
        }
      ],
      "stateMutability": "view",
      "type": "function",
      "constant": true
    },
    {
      "inputs": [
        {
          "internalType": "uint256",
          "name": "_electionId",
          "type": "uint256"
        },
        {
          "internalType": "uint256",
          "name": "_candidateId",
          "type": "uint256"
        }
      ],
      "name": "getCandidate",
      "outputs": [
        {
          "internalType": "uint256",
          "name": "",
          "type": "uint256"
        },
        {
          "internalType": "string",
          "name": "",
          "type": "string"
        },
        {
          "internalType": "string",
          "name": "",
          "type": "string"
        },
        {
          "internalType": "uint256",
          "name": "",
          "type": "uint256"
        },
        {
          "internalType": "bool",
          "name": "",
          "type": "bool"
        }
      ],
      "stateMutability": "view",
      "type": "function",
      "constant": true
    },
    {
      "inputs": [
        {
          "internalType": "uint256",
          "name": "_electionId",
          "type": "uint256"
        },
        {
          "internalType": "address",
          "name": "_voterAddress",
          "type": "address"
        }
      ],
      "name": "getVoter",
      "outputs": [
        {
          "internalType": "bool",
          "name": "",
          "type": "bool"
        },
        {
          "internalType": "bool",
          "name": "",
          "type": "bool"
        },
        {
          "internalType": "uint256",
          "name": "",
          "type": "uint256"
        },
        {
          "internalType": "uint256",
          "name": "",
          "type": "uint256"
        }
      ],
      "stateMutability": "view",
      "type": "function",
      "constant": true
    },
    {
      "inputs": [
        {
          "internalType": "uint256",
          "name": "_electionId",
          "type": "uint256"
        }
      ],
      "name": "isVotingActive",
      "outputs": [
        {
          "internalType": "bool",
          "name": "",
          "type": "bool"
        }
      ],
      "stateMutability": "view",
      "type": "function",
      "constant": true
    },
    {
      "inputs": [
        {
          "internalType": "uint256",
          "name": "_electionId",
          "type": "uint256"
        }
      ],
      "name": "endElection",
      "outputs": [],
      "stateMutability": "nonpayable",
      "type": "function"
    }
  ],
  "bytecode": "0x608060405234801561001057600080fd5b50600080546001600160a01b03191633178155600155611800806100356000396000f3fe608060405234801561001057600080fd5b50600436106100cf5760003560e01c80638da5cb5b1161008c578063997d283011610066578063997d2830146102245780639c98bcbb1461022d578063b384abef14610240578063f46d7b341461025357600080fd5b80638da5cb5b146101af5780638f47b146146101da57806394c790bb1461020f57600080fd5b80634129b2c9146100d45780634bd46448146101005780635e6fef0114610124578063772744b51461014a5780637ad36e841461016d57806381a60c0d1461018e575b600080fd5b6100e76100e23660046111fe565b610266565b6040516100f7949392919061125d565b60405180910390f35b61011361010e36600461129a565b6104fa565b6040516100f79594939291906112bc565b6101376101323660046111fe565b61069d565b6040516100f79796959493929190611301565b61015d6101583660046111fe565b6107ec565b60405190151581526020016100f7565b61018061017b3660046113f8565b61085d565b6040519081526020016100f7565b6101a161019c3660046111fe565b61099a565b6040516100f79291906114a7565b6000546101c2906001600160a01b031681565b6040516001600160a01b0390911681526020016100f7565b6101ed6101e83660046114d5565b610b12565b60408051941515855292151560208501529183015260608201526080016100f7565b61022261021d3660046114d5565b610b90565b005b61018060015481565b61022261023b3660046111fe565b610d26565b61022261024e36600461129a565b610d9b565b610222610261366004611511565b611047565b600060608060008460008111801561028057506001548111155b6102a55760405162461bcd60e51b815260040161029c90611588565b60405180910390fd5b600086815260026020526040902060088101546103045760405162461bcd60e51b815260206004820152601960248201527f4e6f2063616e6469646174657320696e20656c656374696f6e00000000000000604482015260640161029c565b6000808260080160008154811061031d5761031d6115bf565b9060005260206000200154905060005b60088401548110156103aa576000846008018281548110610350576103506115bf565b906000526020600020015490508385600701600083815260200190815260200160002060030154111561039757600081815260078601602052604090206003015493509150815b50806103a2816115d5565b91505061032d565b5060008181526007840160205260409020805460038201546001830180549091600285019183906103da906115fc565b80601f0160208091040260200160405190810160405280929190818152602001828054610406906115fc565b80156104535780601f1061042857610100808354040283529160200191610453565b820191906000526020600020905b81548152906001019060200180831161043657829003601f168201915b50505050509250818054610466906115fc565b80601f0160208091040260200160405190810160405280929190818152602001828054610492906115fc565b80156104df5780601f106104b4576101008083540402835291602001916104df565b820191906000526020600020905b8154815290600101906020018083116104c257829003601f168201915b50505050509150985098509850985050505050509193509193565b60006060806000808660008111801561051557506001548111155b6105315760405162461bcd60e51b815260040161029c90611588565b60008881526002602081815260408084208b8552600781019092529092208054600382015460048301546001840180549495939490938601929160ff1690849061057a906115fc565b80601f01602080910402602001604051908101604052809291908181526020018280546105a6906115fc565b80156105f35780601f106105c8576101008083540402835291602001916105f3565b820191906000526020600020905b8154815290600101906020018083116105d657829003601f168201915b50505050509350828054610606906115fc565b80601f0160208091040260200160405190810160405280929190818152602001828054610632906115fc565b801561067f5780601f106106545761010080835404028352916020019161067f565b820191906000526020600020905b81548152906001019060200180831161066257829003601f168201915b50505050509250975097509750975097505050509295509295909350565b600260205260009081526040902080546001820180549192916106bf906115fc565b80601f01602080910402602001604051908101604052809291908181526020018280546106eb906115fc565b80156107385780601f1061070d57610100808354040283529160200191610738565b820191906000526020600020905b81548152906001019060200180831161071b57829003601f168201915b50505050509080600201805461074d906115fc565b80601f0160208091040260200160405190810160405280929190818152602001828054610779906115fc565b80156107c65780601f1061079b576101008083540402835291602001916107c6565b820191906000526020600020905b8154815290600101906020018083116107a957829003601f168201915b505050506003830154600484015460058501546006909501549394919390925060ff1687565b60008160008111801561080157506001548111155b61081d5760405162461bcd60e51b815260040161029c90611588565b6000838152600260205260409020600681015460ff168015610843575080600301544210155b8015610853575080600401544211155b9250505b50919050565b600080546001600160a01b031633146108885760405162461bcd60e51b815260040161029c90611630565b8183106108e25760405162461bcd60e51b815260206004820152602260248201527f53746172742074696d65206d757374206265206265666f726520656e642074696044820152616d6560f01b606482015260840161029c565b600180549060006108f2836115d5565b909155505060018054600081815260026020526040902090815590810161091987826116c0565b506002810161092886826116c0565b5060038101849055600481018390556000600582015560068101805460ff19166001908117909155546040517fe7a0aae5d733e07e246dea86213a1ac1b0aa8554bde889bb75c12752f44e53d99061098590899088908890611780565b60405180910390a25050600154949350505050565b606080826000811180156109b057506001548111155b6109cc5760405162461bcd60e51b815260040161029c90611588565b6000848152600260205260408120600881015490918167ffffffffffffffff8111156109fa576109fa611355565b604051908082528060200260200182016040528015610a23578160200160208202803683370190505b50905060008267ffffffffffffffff811115610a4157610a41611355565b604051908082528060200260200182016040528015610a6a578160200160208202803683370190505b50905060005b83811015610b04576000856008018281548110610a8f57610a8f6115bf565b9060005260206000200154905080848381518110610aaf57610aaf6115bf565b60200260200101818152505085600701600082815260200190815260200160002060030154838381518110610ae657610ae66115bf565b60209081029190910101525080610afc816115d5565b915050610a70565b509095509350505050915091565b60008060008085600081118015610b2b57506001548111155b610b475760405162461bcd60e51b815260040161029c90611588565b505050600093845250506002602081815260408085206001600160a01b0394909416855260099093019052912080546001820154919092015460ff808416946101009094041692565b6000546001600160a01b03163314610bba5760405162461bcd60e51b815260040161029c90611630565b81600081118015610bcd57506001548111155b610be95760405162461bcd60e51b815260040161029c90611588565b60008381526002602090815260408083206001600160a01b0386168452600981019092529091205460ff1615610c615760405162461bcd60e51b815260206004820152601860248201527f566f74657220616c726561647920726567697374657265640000000000000000604482015260640161029c565b6040805160808101825260018082526000602080840182815284860183815242606087019081526001600160a01b038b1680865260098a01855288862097518854945161ffff1990951690151561ff001916176101009415159490940293909317875590518686015551600290950194909455600a8601805493840181558252812090910180546001600160a01b031916831790559151909186917ff45b8429c36d478f9a6d081c4811a819b98aa5b608588bed9d406405cf2824739190a350505050565b6000546001600160a01b03163314610d505760405162461bcd60e51b815260040161029c90611630565b80600081118015610d6357506001548111155b610d7f5760405162461bcd60e51b815260040161029c90611588565b506000908152600260205260409020600601805460ff19169055565b81600081118015610dae57506001548111155b610dca5760405162461bcd60e51b815260040161029c90611588565b60008381526002602052604090206003810154849190421015610e285760405162461bcd60e51b8152602060048201526016602482015275159bdd1a5b99c81a185cc81b9bdd081cdd185c9d195960521b604482015260640161029c565b8060040154421115610e6f5760405162461bcd60e51b815260206004820152601060248201526f159bdd1a5b99c81a185cc8195b99195960821b604482015260640161029c565b600681015460ff16610ebc5760405162461bcd60e51b8152602060048201526016602482015275456c656374696f6e206973206e6f742061637469766560501b604482015260640161029c565b600085815260026020908152604080832033845260098101909252909120805460ff16610f225760405162461bcd60e51b8152602060048201526014602482015273159bdd195c881b9bdd081c9959da5cdd195c995960621b604482015260640161029c565b8054610100900460ff1615610f695760405162461bcd60e51b815260206004820152600d60248201526c105b1c9958591e481d9bdd1959609a1b604482015260640161029c565b600086815260078301602052604090206004015460ff16610fc05760405162461bcd60e51b8152602060048201526011602482015270496e76616c69642063616e64696461746560781b604482015260640161029c565b805461ff0019166101001781556001810186905560008681526007830160205260408120600301805491610ff3836115d5565b909155505060058201805490600061100a836115d5565b90915550506040518690339089907f2acce567deca3aabf56327adbb4524bd5318936eaefa69e3a5208ffda0cfec0990600090a450505050505050565b6000546001600160a01b031633146110715760405162461bcd60e51b815260040161029c90611630565b8360008111801561108457506001548111155b6110a05760405162461bcd60e51b815260040161029c90611588565b6000858152600260209081526040808320878452600781019092529091206004015460ff16156111125760405162461bcd60e51b815260206004820152601860248201527f43616e64696461746520616c7265616479206578697374730000000000000000604482015260640161029c565b6040805160a08101825286815260208082018781528284018790526000606084018190526001608085018190528a825260078701909352939093208251815592519192919082019061116490826116c0565b506040820151600282019061117990826116c0565b50606082015160038201556080909101516004909101805460ff19169115159190911790556008810180546001810182556000918252602090912001859055604051859087907f503cfceb0fb2178c5fb47ff394c816e4075abc8066c3dcb16d08a76847ee6e16906111ee90889088906117a5565b60405180910390a3505050505050565b60006020828403121561121057600080fd5b5035919050565b6000815180845260005b8181101561123d57602081850181015186830182015201611221565b506000602082860101526020601f19601f83011685010191505092915050565b8481526080602082015260006112766080830186611217565b82810360408401526112888186611217565b91505082606083015295945050505050565b600080604083850312156112ad57600080fd5b50508035926020909101359150565b85815260a0602082015260006112d560a0830187611217565b82810360408401526112e78187611217565b606084019590955250509015156080909101529392505050565b87815260e06020820152600061131a60e0830189611217565b828103604084015261132c8189611217565b9150508560608301528460808301528360a083015282151560c083015298975050505050505050565b634e487b7160e01b600052604160045260246000fd5b600082601f83011261137c57600080fd5b813567ffffffffffffffff8082111561139757611397611355565b604051601f8301601f19908116603f011681019082821181831017156113bf576113bf611355565b816040528381528660208588010111156113d857600080fd5b836020870160208301376000602085830101528094505050505092915050565b6000806000806080858703121561140e57600080fd5b843567ffffffffffffffff8082111561142657600080fd5b6114328883890161136b565b9550602087013591508082111561144857600080fd5b506114558782880161136b565b949794965050505060408301359260600135919050565b600081518084526020808501945080840160005b8381101561149c57815187529582019590820190600101611480565b509495945050505050565b6040815260006114ba604083018561146c565b82810360208401526114cc818561146c565b95945050505050565b600080604083850312156114e857600080fd5b8235915060208301356001600160a01b038116811461150657600080fd5b809150509250929050565b6000806000806080858703121561152757600080fd5b8435935060208501359250604085013567ffffffffffffffff8082111561154d57600080fd5b6115598883890161136b565b9350606087013591508082111561156f57600080fd5b5061157c8782880161136b565b91505092959194509250565b60208082526017908201527f456c656374696f6e20646f6573206e6f74206578697374000000000000000000604082015260600190565b634e487b7160e01b600052603260045260246000fd5b6000600182016115f557634e487b7160e01b600052601160045260246000fd5b5060010190565b600181811c9082168061161057607f821691505b60208210810361085757634e487b7160e01b600052602260045260246000fd5b60208082526021908201527f4f6e6c79206f776e65722063616e2063616c6c20746869732066756e6374696f6040820152603760f91b606082015260800190565b601f8211156116bb57600081815260208120601f850160051c810160208610156116985750805b601f850160051c820191505b818110156116b7578281556001016116a4565b5050505b505050565b815167ffffffffffffffff8111156116da576116da611355565b6116ee816116e884546115fc565b84611671565b602080601f831160018114611723576000841561170b5750858301515b600019600386901b1c1916600185901b1785556116b7565b600085815260208120601f198616915b8281101561175257888601518255948401946001909101908401611733565b50858210156117705787850151600019600388901b60f8161c191681555b5050505050600190811b01905550565b6060815260006117936060830186611217565b60208301949094525060400152919050565b6040815260006117b86040830185611217565b82810360208401526114cc818561121756fea2646970667358221220681b1c92c183d9f85f6e6ae66e1e825faf946ad0e5ecf48c5e31fd5bd4d248bc64736f6c63430008130033",
  "immutableReferences": {},
  "source": "// SPDX-License-Identifier: MIT\r\npragma solidity ^0.8.19;\r\n\r\ncontract Voting {\r\n    address public owner;\r\n    uint256 public electionCount;\r\n\r\n    struct Candidate {\r\n        uint256 id;\r\n        string name;\r\n        string party;\r\n        uint256 voteCount;\r\n        bool isActive;\r\n    }\r\n\r\n    struct Voter {\r\n        bool isRegistered;\r\n        bool hasVoted;\r\n        uint256 votedFor;\r\n        uint256 registrationTime;\r\n    }\r\n\r\n    struct Election {\r\n        uint256 id;\r\n        string name;\r\n        string description;\r\n        uint256 startTime;\r\n        uint256 endTime;\r\n        uint256 totalVotes;\r\n        bool isActive;\r\n        mapping(uint256 => Candidate) candidates;\r\n        uint256[] candidateIds;\r\n        mapping(address => Voter) voters;\r\n        address[] voterAddresses;\r\n    }\r\n\r\n    mapping(uint256 => Election) public elections;\r\n\r\n    event ElectionCreated(uint256 indexed electionId, string name, uint256 startTime, uint256 endTime);\r\n    event CandidateAdded(uint256 indexed electionId, uint256 indexed candidateId, string name, string party);\r\n    event VoterRegistered(uint256 indexed electionId, address indexed voter);\r\n    event VoteCast(uint256 indexed electionId, address indexed voter, uint256 indexed candidateId);\r\n\r\n    modifier onlyOwner() {\r\n        require(msg.sender == owner, \"Only owner can call this function\");\r\n        _;\r\n    }\r\n\r\n    modifier electionExists(uint256 _electionId) {\r\n        require(_electionId > 0 && _electionId <= electionCount, \"Election does not exist\");\r\n        _;\r\n    }\r\n\r\n    modifier votingActive(uint256 _electionId) {\r\n        Election storage election = elections[_electionId];\r\n        require(block.timestamp >= election.startTime, \"Voting has not started\");\r\n        require(block.timestamp <= election.endTime, \"Voting has ended\");\r\n        require(election.isActive, \"Election is not active\");\r\n        _;\r\n    }\r\n\r\n    constructor() {\r\n        owner = msg.sender;\r\n        electionCount = 0;\r\n    }\r\n\r\n    // --- Create and manage elections ---\r\n    function createElection(\r\n        string memory _name,\r\n        string memory _description,\r\n        uint256 _startTime,\r\n        uint256 _endTime\r\n    ) public onlyOwner returns (uint256) {\r\n        require(_startTime < _endTime, \"Start time must be before end time\");\r\n\r\n        electionCount++;\r\n        Election storage newElection = elections[electionCount];\r\n        newElection.id = electionCount;\r\n        newElection.name = _name;\r\n        newElection.description = _description;\r\n        newElection.startTime = _startTime;\r\n        newElection.endTime = _endTime;\r\n        newElection.totalVotes = 0;\r\n        newElection.isActive = true;\r\n\r\n        emit ElectionCreated(electionCount, _name, _startTime, _endTime);\r\n        return electionCount;\r\n    }\r\n\r\n    function addCandidate(\r\n        uint256 _electionId,\r\n        uint256 _candidateId,\r\n        string memory _name,\r\n        string memory _party\r\n    ) public onlyOwner electionExists(_electionId) {\r\n        Election storage election = elections[_electionId];\r\n        require(!election.candidates[_candidateId].isActive, \"Candidate already exists\");\r\n\r\n        election.candidates[_candidateId] = Candidate({\r\n            id: _candidateId,\r\n            name: _name,\r\n            party: _party,\r\n            voteCount: 0,\r\n            isActive: true\r\n        });\r\n\r\n        election.candidateIds.push(_candidateId);\r\n\r\n        emit CandidateAdded(_electionId, _candidateId, _name, _party);\r\n    }\r\n\r\n    // --- Register voters ---\r\n    function registerVoter(uint256 _electionId, address _voterAddress) \r\n        public onlyOwner electionExists(_electionId) \r\n    {\r\n        Election storage election = elections[_electionId];\r\n        require(!election.voters[_voterAddress].isRegistered, \"Voter already registered\");\r\n\r\n        election.voters[_voterAddress] = Voter({\r\n            isRegistered: true,\r\n            hasVoted: false,\r\n            votedFor: 0,\r\n            registrationTime: block.timestamp\r\n        });\r\n\r\n        election.voterAddresses.push(_voterAddress);\r\n\r\n        emit VoterRegistered(_electionId, _voterAddress);\r\n    }\r\n\r\n    // --- Voting logic ---\r\n    function vote(uint256 _electionId, uint256 _candidateId) \r\n        public electionExists(_electionId) votingActive(_electionId) \r\n    {\r\n        Election storage election = elections[_electionId];\r\n        Voter storage voter = election.voters[msg.sender];\r\n\r\n        require(voter.isRegistered, \"Voter not registered\");\r\n        require(!voter.hasVoted, \"Already voted\");\r\n        require(election.candidates[_candidateId].isActive, \"Invalid candidate\");\r\n\r\n        voter.hasVoted = true;\r\n        voter.votedFor = _candidateId;\r\n\r\n        election.candidates[_candidateId].voteCount++;\r\n        election.totalVotes++;\r\n\r\n        emit VoteCast(_electionId, msg.sender, _candidateId);\r\n    }\r\n\r\n    // --- View results ---\r\n    function getResults(uint256 _electionId) \r\n        public view electionExists(_electionId) \r\n        returns (uint256[] memory, uint256[] memory) \r\n    {\r\n        Election storage election = elections[_electionId];\r\n        uint256 candidateCount = election.candidateIds.length;\r\n\r\n        uint256[] memory candidateIds = new uint256[](candidateCount);\r\n        uint256[] memory voteCounts = new uint256[](candidateCount);\r\n\r\n        for (uint256 i = 0; i < candidateCount; i++) {\r\n            uint256 candidateId = election.candidateIds[i];\r\n            candidateIds[i] = candidateId;\r\n            voteCounts[i] = election.candidates[candidateId].voteCount;\r\n        }\r\n\r\n        return (candidateIds, voteCounts);\r\n    }\r\n\r\n    function getWinner(uint256 _electionId)\r\n        public view electionExists(_electionId)\r\n        returns (uint256, string memory, string memory, uint256)\r\n    {\r\n        Election storage election = elections[_electionId];\r\n        require(election.candidateIds.length > 0, \"No candidates in election\");\r\n        \r\n        uint256 maxVotes = 0;\r\n        uint256 winningCandidateId = election.candidateIds[0];\r\n\r\n        for (uint256 i = 0; i < election.candidateIds.length; i++) {\r\n            uint256 candidateId = election.candidateIds[i];\r\n            if (election.candidates[candidateId].voteCount > maxVotes) {\r\n                maxVotes = election.candidates[candidateId].voteCount;\r\n                winningCandidateId = candidateId;\r\n            }\r\n        }\r\n\r\n        Candidate storage winner = election.candidates[winningCandidateId];\r\n        return (winner.id, winner.name, winner.party, winner.voteCount);\r\n    }\r\n\r\n    // --- Get individual candidate ---\r\n    function getCandidate(uint256 _electionId, uint256 _candidateId)\r\n        public view electionExists(_electionId)\r\n        returns (uint256, string memory, string memory, uint256, bool)\r\n    {\r\n        Election storage election = elections[_electionId];\r\n        Candidate storage candidate = election.candidates[_candidateId];\r\n        \r\n        return (\r\n            candidate.id,\r\n            candidate.name,\r\n            candidate.party,\r\n            candidate.voteCount,\r\n            candidate.isActive\r\n        );\r\n    }\r\n\r\n    // --- Get individual voter ---\r\n    function getVoter(uint256 _electionId, address _voterAddress)\r\n        public view electionExists(_electionId)\r\n        returns (bool, bool, uint256, uint256)\r\n    {\r\n        Election storage election = elections[_electionId];\r\n        Voter storage voter = election.voters[_voterAddress];\r\n        \r\n        return (\r\n            voter.isRegistered,\r\n            voter.hasVoted,\r\n            voter.votedFor,\r\n            voter.registrationTime\r\n        );\r\n    }\r\n\r\n    // --- Check if voting is active ---\r\n    function isVotingActive(uint256 _electionId) \r\n        public view electionExists(_electionId) \r\n        returns (bool) \r\n    {\r\n        Election storage election = elections[_electionId];\r\n        return (\r\n            election.isActive &&\r\n            block.timestamp >= election.startTime &&\r\n            block.timestamp <= election.endTime\r\n        );\r\n    }\r\n\r\n    // --- End election ---\r\n    function endElection(uint256 _electionId) public onlyOwner electionExists(_electionId) {\r\n        elections[_electionId].isActive = false;\r\n    }\r\n}",
  "sourcePath": "C:\\Users\\yuvra\\OneDrive\\Desktop\\CapstonePersonal\\contracts\\Voting.sol",
  "compiler": {
    "name": "solc",
    "version": "0.8.19+commit.7dd6d404.Emscripten.clang"
  },
  "schemaVersion": "3.4.16",
  "updatedAt": "2025-10-02T11:32:33.958Z",
  "networkType": "ethereum",
  "devdoc": {
    "kind": "dev",
    "methods": {},
    "version": 1
  },
  "userdoc": {
    "kind": "user",
    "methods": {},
    "version": 1
  }
}